:020000040800F2
:10000000000001204D1A0008611900086719000856
:100010006D19000873190008791900080000000024
:100020000000000000000000000000007F19000830
:100030008D190008000000009B190008A91900088C
:100040009D1A00089D1A00089D1A00089D1A0008B4
:100050009D1A00089D1A00089D1A00089D1A0008A4
:100060009D1A00089D1A00089D1A00089D1A000894
:100070009D1A00089D1A00089D1A00089D1A000884
:100080009D1A00089D1A00089D1A00080000000033
:100090000000000000000000000000009D1A0008A1
:1000A0009D1A00089D1A00089D1A00089D1A000854
:1000B0009D1A00089D1A00089D1A00089D1A000844
:1000C0009D1A00089D1A00089D1A00089D1A000834
:1000D0009D1A00089D1A00089D1A000800000000E3
:1000E0009D1A00089D1A00089D1A000800000000D3
:1000F0000000000000000000000000009D1A000841
:10010000000000009D1A00089D1A00089D1A0008B2
:1001100000000000000000000000000000000000DF
:100120009D1A00089D1A00089D1A00089D1A0008D3
:100130009D1A000800000000000000000000000000
:100140000000000000000000000000009D1A0008F0
:100150009D1A00089D1A00089D1A00089D1A0008A3
:100160009D1A00089D1A0008000000000000000011
:10017000000000000000000000000000000000007F
:10018000000000009D1A00080000000000000000B0
:040190009D1A0008AC
:1001A00010B5054C237833B9044B13B10448AFF3B1
:1001B00000800123237010BDE0010020000000003A
:1001C000EC6B000808B5034B1BB103490348AFF3C0
:1001D000008008BD00000000E4010020EC6B000876
:1001E000034613F8012B002AFBD1181A0138704777
:1001F00001F0FF01102A2BDB10F0070F08D010F8D8
:10020000013B013A8B422DD010F0070F42B3F6D1DB
:10021000F0B441EA012141EA014122F007047FF0F4
:1002200000070023F0E80256083C85EA010586EA4B
:10023000010685FA47F5A3FA87F586FA47F6A5FA87
:1002400087F68EB9EED1F0BC01F0FF0102F0070293
:1002500032B110F8013B013A83EA010313B1F8D13E
:100260000020704701387047002D06BF354603381F
:10027000073815F0010F07D1013015F4807F02BF58
:10028000013015F4C03F0130F0BC0138704700BFA9
:1002900081F0004102E000BF83F0004330B54FEA37
:1002A00041044FEA430594EA050F08BF90EA020FA4
:1002B0001FBF54EA000C55EA020C7FEA645C7FEA37
:1002C000655C00F0E2804FEA5454D4EB5555B8BF5A
:1002D0006D420CDD2C4480EA020281EA030382EACB
:1002E000000083EA010180EA020281EA0303362D5D
:1002F00088BF30BD11F0004F4FEA01314FF4801C30
:100300004CEA113102D0404261EB410113F0004F41
:100310004FEA03334CEA133302D0524263EB4303F8
:1003200094EA050F00F0A780A4F10104D5F1200E96
:100330000DDB02FA0EFC22FA05F2801841F10001F1
:1003400003FA0EF2801843FA05F359410EE0A5F1C5
:1003500020050EF1200E012A03FA0EFC28BF4CF0F6
:10036000020C43FA05F3C01851EBE37101F00045AC
:1003700007D54FF0000EDCF1000C7EEB00006EEBB9
:100380000101B1F5801F1BD3B1F5001F0CD3490843
:100390005FEA30004FEA3C0C04F101044FEA44529A
:1003A00012F5800F80F09A80BCF1004F08BF5FEA21
:1003B000500C50F1000041EB045141EA050130BD01
:1003C0005FEA4C0C404141EB010111F4801FA4F1A4
:1003D0000104E9D191F0000F04BF01460020B1FAF9
:1003E00081F308BF2033A3F10B03B3F120020CDA31
:1003F0000C3208DD02F1140CC2F10C0201FA0CF00F
:1004000021FA02F10CE002F11402D8BFC2F1200C73
:1004100001FA02F120FA0CFCDCBF41EA0C01904029
:10042000E41AA2BF01EB0451294330BD6FEA040472
:100430001F3C1CDA0C340EDC04F11404C4F120025D
:1004400020FA04F001FA02F340EA030021FA04F36F
:1004500045EA030130BDC4F10C04C4F1200220FAC6
:1004600002F001FA04F340EA0300294630BD21FA04
:1004700004F0294630BD94F0000F83F4801306BFCA
:1004800081F480110134013D4EE77FEA645C18BFBE
:100490007FEA655C29D094EA050F08BF90EA020F55
:1004A00005D054EA000C04BF1946104630BD91EA4D
:1004B000030F1EBF0021002030BD5FEA545C05D150
:1004C0004000494128BF41F0004130BD14F580048F
:1004D0003CBF01F5801130BD01F0004545F0FE4103
:1004E00041F470014FF0000030BD7FEA645C1ABF38
:1004F000194610467FEA655C1CBF0B46024650EA6F
:10050000013406BF52EA033591EA030F41F400219A
:1005100030BD00BF90F0000F04BF0021704730B520
:100520004FF4806404F132044FF000054FF00001F5
:1005300050E700BF90F0000F04BF0021704730B5B6
:100540004FF4806404F1320410F0004548BF40428B
:100550004FF000013EE700BF42004FEAE2014FEAE0
:1005600031014FEA02701FBF12F07F4393F07F4FBB
:1005700081F06051704732F07F4208BF704793F0BE
:100580007F4F04BF41F40021704730B54FF46074D1
:1005900001F0004521F000411CE700BF50EA0102D4
:1005A00008BF704730B54FF000050AE050EA01027D
:1005B00008BF704730B511F0004502D5404261EBED
:1005C00041014FF4806404F132045FEA915C3FF42E
:1005D000D8AE4FF003025FEADC0C18BF03325FEACB
:1005E000DC0C18BF033202EBDC02C2F1200300FA7C
:1005F00003FC20FA02F001FA03FE40EA0E0021FAA1
:1006000002F11444BDE600BF70B54FF0FF0C4CF48E
:10061000E06C1CEA11541DBF1CEA135594EA0C0F40
:1006200095EA0C0F00F0DEF82C4481EA030621EA7B
:100630004C5123EA4C5350EA013518BF52EA0335B6
:1006400041F4801143F4801338D0A0FB02CE4FF068
:100650000005E1FB02E506F00042E0FB03E54FF098
:100660000006E1FB03569CF0000F18BF4EF0010E90
:10067000A4F1FF04B6F5007F64F5407404D25FEA8C
:100680004E0E6D4146EB060642EAC62141EA55513F
:100690004FEAC52040EA5E504FEACE2EB4F1FD0C81
:1006A00088BFBCF5E06F1ED8BEF1004F08BF5FEAFF
:1006B000500E50F1000041EB045170BD06F00046B1
:1006C00046EA010140EA020081EA0301B4EB5C045E
:1006D000C2BFD4EB0C0541EA045170BD41F4801156
:1006E0004FF0000E013C00F3AB8014F1360FDEBF7B
:1006F000002001F0004170BDC4F10004203C35DA57
:100700000C341BDC04F11404C4F1200500FA05F3D9
:1007100020FA04F001FA05F240EA020001F000427A
:1007200021F0004110EBD37021FA04F642EB0601F0
:100730005EEA430E08BF20EAD37070BDC4F10C041A
:10074000C4F1200500FA04F320FA05F001FA04F2DE
:1007500040EA020001F0004110EBD37041F10001CA
:100760005EEA430E08BF20EAD37070BDC4F12005D5
:1007700000FA05F24EEA020E20FA04F301FA05F23D
:1007800043EA020321FA04F001F0004121FA04F2E5
:1007900020EA020000EBD3705EEA430E08BF20EAB5
:1007A000D37070BD94F0000F0FD101F000464000EF
:1007B00041EB010111F4801F08BF013CF7D041EA71
:1007C000060195F0000F18BF704703F00046520075
:1007D00043EB030313F4801F08BF013DF7D043EA46
:1007E0000603704794EA0C0F0CEA135518BF95EAFC
:1007F0000C0F0CD050EA410618BF52EA4306D1D183
:1008000081EA030101F000414FF0000070BD50EAA1
:10081000410606BF1046194652EA430619D094EA2B
:100820000C0F02D150EA013613D195EA0C0F05D115
:1008300052EA03361CBF104619460AD181EA030169
:1008400001F0004141F0FE4141F470014FF0000021
:1008500070BD41F0FE4141F4780170BD70B54FF0BC
:10086000FF0C4CF4E06C1CEA11541DBF1CEA13553C
:1008700094EA0C0F95EA0C0F00F0A7F8A4EB05041E
:1008800081EA030E52EA03354FEA013100F0888015
:100890004FEA03334FF0805545EA131343EA1263DE
:1008A0004FEA022245EA111545EA10654FEA002693
:1008B0000EF000419D4208BF964244F1FD0404F54C
:1008C000407402D25B084FEA3202B61A65EB0305A8
:1008D0005B084FEA32024FF480104FF4002CB6EB65
:1008E000020E75EB030E22BFB61A754640EA0C00E5
:1008F0005B084FEA3202B6EB020E75EB030E22BF25
:10090000B61A754640EA5C005B084FEA3202B6EB65
:10091000020E75EB030E22BFB61A754640EA9C0024
:100920005B084FEA3202B6EB020E75EB030E22BFF4
:10093000B61A754640EADC0055EA060E18D04FEAB2
:10094000051545EA16754FEA06164FEAC30343EA52
:1009500052734FEAC2025FEA1C1CC0D111F4801F1F
:100960000BD141EA00014FF000004FF0004CB6E718
:1009700011F4801F04BF01430020B4F1FD0C88BFB7
:10098000BCF5E06F3FF6AFAEB5EB030C04BFB6EBC2
:10099000020C5FEA500C50F1000041EB045170BDB5
:1009A0000EF0004E4EEA113114EB5C04C2BFD4EBE2
:1009B0000C0541EA045170BD41F480114FF0000E66
:1009C000013C90E645EA060E8DE60CEA135594EAE2
:1009D0000C0F08BF95EA0C0F3FF43BAF94EA0C0FE5
:1009E0000AD150EA01347FF434AF95EA0C0F7FF45A
:1009F00025AF104619462CE795EA0C0F06D152EAAE
:100A000003353FF4FDAE1046194622E750EA410691
:100A100018BF52EA43067FF4C5AE50EA41047FF4A2
:100A20000DAF52EA43057FF4EBAE12E74FF0FF3C07
:100A300006E000BF4FF0010C02E000BF4FF0010CD8
:100A40004DF804CD4FEA410C7FEA6C5C4FEA430C51
:100A500018BF7FEA6C5C1BD001B050EA410C0CBFA0
:100A600052EA430C91EA030F02BF90EA020F002002
:100A7000704710F1000F91EA030F58BF994208BF69
:100A800090422CBFD8176FEAE37040F00100704726
:100A90004FEA410C7FEA6C5C02D150EA013C07D17D
:100AA0004FEA430C7FEA6C5CD6D152EA033CD3D0C8
:100AB0005DF8040B704700BF8446104662468C46C2
:100AC0001946634600E000BF01B5FFF7B7FF0028F5
:100AD00048BF10F1000F01BD4DF808EDFFF7F4FF1E
:100AE0000CBF012000205DF808FB00BF4DF808EDA9
:100AF000FFF7EAFF34BF012000205DF808FB00BFCC
:100B00004DF808EDFFF7E0FF94BF012000205DF8ED
:100B100008FB00BF4DF808EDFFF7CEFF94BF0120A2
:100B200000205DF808FB00BF4DF808EDFFF7C4FF9B
:100B300034BF012000205DF808FB00BF4FEA410CE4
:100B40007FEA6C5C02D150EA013C0AD14FEA430CC7
:100B50007FEA6C5C02D152EA033C02D14FF0000004
:100B600070474FF0010070474FEA410212F5001242
:100B700015D211D56FF47873B3EB625212D94FEAE4
:100B8000C12343F0004343EA505311F0004F23FACE
:100B900002F018BF404270474FF00000704750EA23
:100BA000013005D111F0004008BF6FF000407047E0
:100BB0004FF00000704700BF4A0011D212F500123A
:100BC00011D20DD56FF47873B3EB62520ED44FEAA5
:100BD000C12343F0004343EA505323FA02F0704725
:100BE0004FF00000704750EA013002D14FF0FF3063
:100BF00070474FF0000070474FEA4102B2F1E04306
:100C000024BFB3F5001CDCF1FE5C0DD901F0004CF3
:100C10004FEAC0024CEA5070B2F1004F40EB830043
:100C200008BF20F00100704711F0804F21D113F16F
:100C30003872BCBF01F00040704741F480114FEAA8
:100C40005252C2F11802C2F1200C10FA0CF320FA31
:100C500002F018BF40F001004FEAC1234FEAD3234E
:100C600003FA0CFC40EA0C0023FA02F34FEA4303B8
:100C7000CCE77FEA625307D150EA01331EBF4FF041
:100C8000FE4040F44000704701F0004040F0FE405C
:100C900040F40000704700BF53B94AB9002908BFAB
:100CA00000281CBF4FF0FF314FF0FF3000F072B949
:100CB000ADF1080C6DE904CE00F006F8DDF804E0B3
:100CC000DDE9022304B070472DE9F047089E044691
:100CD0008846002B4BD18A42154667D9B2FA82F278
:100CE0004AB1C2F1200701FA02F320FA07F7954052
:100CF00047EA030894404FEA154E230CB8FBFEF771
:100D00001FFA85FC0EFB178843EA084307FB0CF12A
:100D1000994209D9EB1807F1FF3080F01B81994205
:100D200040F21881023F2B445B1AA4B2B3FBFEF0E1
:100D30000EFB103344EA034400FB0CFCA44509D924
:100D40002C1900F1FF3380F00781A44540F20481A3
:100D500002382C4440EA0740A4EB0C0400271EB1E3
:100D6000D4400023C6E900433946BDE8F0878B42F2
:100D700009D9002E00F0EB800027C6E900013846B3
:100D80003946BDE8F087B3FA83F7002F47D18B428D
:100D900002D3824200F2FA80841A61EB030301203D
:100DA0009846002EE0D0C6E90048DDE702B9FFDE34
:100DB000B2FA82F2002A40F08F80491B4FEA154EAA
:100DC0001FFA85F80127B1FBFEFC230C0EFB1C115A
:100DD00043EA014308FB0CF1994207D9EB180CF1E7
:100DE000FF3002D2994200F2CD808446591AA3B254
:100DF000B1FBFEF00EFB101443EA044408FB00F8BC
:100E0000A04507D92C1900F1FF3302D2A04500F20A
:100E1000B6801846A4EB080440EA0C409FE7C7F1EF
:100E2000200CBB4022FA0CFE4EEA030E01FA07F436
:100E300020FA0CF521FA0CF34FEA1E482543B3FBC8
:100E4000F8F92C0C08FB19331FFA8EFA44EA034315
:100E500009FB0AF49C4202FA07F200FA07F10BD9E7
:100E60001EEB030309F1FF3080F087809C4240F2C3
:100E70008480A9F1020973441B1BADB2B3FBF8F0E7
:100E800008FB103345EA034400FB0AFAA24508D9DF
:100E90001EEB040400F1FF336BD2A24569D902387E
:100EA000744440EA0940A0FB0289A4EB0A044C45C3
:100EB000C2464B4654D351D0002E69D0B1EB0A053F
:100EC00064EB030404FA0CFCFD40FC404CEA05050D
:100ED000C6E90054002747E7C2F1200320FA03F7D0
:100EE000954001FA02F021FA03F34FEA154E384318
:100EF000010CB3FBFEF71FFA85F80EFB173341EA2E
:100F0000034107FB08F38B4204FA02F407D969187E
:100F100007F1FF3C2FD28B422DD9023F2944CB1A37
:100F200081B2B3FBFEF00EFB103341EA034100FB3C
:100F300008F38B4207D9691800F1FF3C17D28B42A6
:100F400015D902382944C91A40EA07473BE7374612
:100F5000304609E70746E7E61846FBE64145ABD2CF
:100F6000B8EB020A69EB0E0201381346A4E76046AB
:100F7000E9E7184695E76746D1E781467CE70238FE
:100F80002C4447E7ACF1020C2B442FE7384608E726
:100F90003746E9E6704700BF80B500AF0C4B1868D4
:100FA0000C4B1B880122194601F042FC0A2318460B
:100FB00000F07AF9064B1868064B1B880022194688
:100FC00001F036FC3C2000F06FF900BF80BD00BF8F
:100FD000FC0100200202002080B582B000AF034671
:100FE000FB71FB79002B08D00A4B18680A4B1B8851
:100FF0000122194601F01CFC07E0064B1868064B5D
:101000001B880022194601F013FC00BF0837BD46BB
:1010100080BD00BFFC0100200002002080B584B02C
:1010200000AF0346FB71FB7903F00F03FB73FB7901
:101030001B09BB73614B1B78012B5AD1604B18689D
:10104000604B1988FB7B03F00103DBB21A4601F009
:10105000EFFB5B4B18685C4B1988FB7B03F00203CA
:10106000DBB21A4601F0E4FB554B1868574B198860
:10107000FB7B03F00403DBB21A4601F0D9FB504BB3
:101080001868534B1988FB7B03F00803DBB21A4640
:1010900001F0CEFB4F4B18684F4B1988BB7B03F018
:1010A0000103DBB21A4601F0C3FB4A4B18684B4BF5
:1010B0001988BB7B03F00203DBB21A4601F0B8FBD0
:1010C000444B1868464B1988BB7B03F00403DBB222
:1010D0001A4601F0ADFB3F4B1868424B1988BB7BA9
:1010E00003F00803DBB21A4601F0A2FBFFF754FF3E
:1010F0005FE0324B1B78022B5BD1364B1868364BC6
:101100001988BB7B03F00103DBB21A4601F090FBA8
:10111000304B1868314B1988BB7B03F00203DBB2FC
:101120001A4601F085FB2B4B18682D4B1988BB7BA9
:1011300003F00403DBB21A4601F07AFB254B186872
:10114000284B1988BB7B03F00803DBB21A4601F079
:101150006FFBFFF721FF1F4B18681F4B1988FB7BA4
:1011600003F00103DBB21A4601F062FB194B186869
:101170001A4B1988FB7B03F00203DBB21A4601F01D
:1011800057FB144B1868164B1988FB7B03F00403BC
:10119000DBB21A4601F04CFB0E4B1868114B198854
:1011A000FB7B03F00803DBB21A4601F041FBFFF7BB
:1011B000F3FE00BF1037BD4680BD00BF0000002019
:1011C00004020020080200200A0200200C02002075
:1011D0000E0200201002002014020020160200203F
:1011E000180200201A02002090B589B000AF3A1D05
:1011F00007F108031146184601F05CFF7B69002BDC
:1012000003D101F043FFF86104E001F03FFF034622
:101210005B00FB61F869FFF77DF921A3D3E90023A7
:10122000FFF7F2F903460C4618462146FFF7C4FCC7
:101230000346FB61184B1B6C174A43F0020313640F
:10124000164B1B68154A23F010031360134B1B68E1
:10125000124A23F001031360104B1B680F4A23F05E
:10126000040313600D4B1B680C4A43F00803136022
:101270000A4AFB69013B9362084B0922DA62074B79
:1012800001225A61054B1B69044A23F001031361D3
:1012900000BF2437BD4690BD003802400004004026
:1012A0008DEDB5A0F7C6B03E80B483B000AF7860D6
:1012B0000E4A7B68013BD3620C4B1B690B4A23F03F
:1012C00001031361094B1B68084A43F001031360D3
:1012D00000BF064B1B6903F00103012BF9D100BFCE
:1012E0000C37BD465DF8047B704700BF000400402A
:1012F00080B582B000AF0346FB710020FFF76CFEA3
:10130000FB791846FFF78AFE00BF0837BD4680BD4F
:1013100080B582B000AF0346FB710120FFF75CFE91
:10132000FB791846FFF77AFE00BF0837BD4680BD3F
:1013300080B584B000AFF8607B600B467B811346BC
:101340003B812A4AFB681360294A7B891380294A1A
:101350003B891380284A7B681360284A3B8B1380A3
:10136000274ABB8B1380274A3B8C1380264ABB8CB1
:101370001380264ABB6A1360254ABB8D1380254A19
:101380003B8E1380244ABB8E1380244A3B8F1380EC
:10139000FFF72AFF224B01221A70224B38221A70C3
:1013A000142000F0EFFB3020FFF7A2FF052000F033
:1013B000E9FB3020FFF79CFF012000F0E3FB302029
:1013C000FFF796FF012000F0DDFB3820FFF790FFCC
:1013D0000F20FFF78DFF0120FFF78AFF022000F0AA
:1013E000D1FB00BF1037BD4680BD00BFFC0100200F
:1013F0000002002002020020040200200802002057
:101400000A0200200C0200200E0200201002002020
:101410001402002016020020180200201A020020E8
:10142000000000200100002080B584B000AF78608B
:101430000023FB7309E0FB7B7A6813441B78184692
:10144000FFF766FFFB7B0133FB73FB7B0F2B05D89C
:10145000FB7B7A6813441B78002BECD100BF10375C
:10146000BD4680BD80B584B000AF03460A46FB711F
:101470001346BB71BB79013BDBB203F00F03FB7377
:10148000FB79012B08D1FB7B63F07F03FB73FB7BB4
:101490001846FFF72DFF07E0FB7B63F03F03FB736C
:1014A000FB7B1846FFF724FF00BF1037BD4680BD09
:1014B00080B500AF01210120FFF7D4FF00BF80BD40
:1014C00080B500AF01210220FFF7CCFF00BF80BD37
:1014D00080B500AF0120FFF70BFF032000F052FBA7
:1014E00000BF80BD80B586B000AF786007F108030B
:1014F0007A680649184602F085FC07F10803184689
:10150000FFF792FF00BF1837BD4680BD086C00088A
:1015100090B589B002AF87ED010A38607868FFF7AF
:101520001BF803460C4607F10800CDE900343A6881
:10153000054902F067FC07F108031846FFF774FF3E
:1015400000BF1C37BD4690BD0C6C000800000000B9
:1015500090B58FB00AAF00F0A3FA00F085F800F064
:1015600035F900F0E1F80023FB603B4800F070FB28
:101570008023089340230793202306931023059389
:10158000364B04930823039304230293022301930D
:1015900001230093314B4FF400724FF480713048B7
:1015A000FFF7C6FE2C4800F00FFB2B4800F050FB65
:1015B0000A21294800F025FC0346002B06D12648C5
:1015C00000F0A3FC0346A3F29633FB60224800F030
:1015D000E5FBFB6807EE903AF8EEE77A17EE900A23
:1015E000FEF7BAFF18A3D3E90023FFF70DF803466F
:1015F0000C461846214616A3D3E90023FFF72EF91F
:1016000003460C4618462146FFF7F6FA0346BB6030
:10161000D7ED027A9FED137A67EE877AC7ED017AEC
:10162000FFF756FFFFF744FFF868FFF75BFFFFF790
:1016300047FF042097ED010AFFF76AFF322000F010
:10164000A1FAAFE7AFF300809A999999999901406F
:101650000000000000FEAF40280200200000024011
:10166000000402400000C84280B594B000AF07F10A
:10167000200330220021184601F078FD07F10C0309
:1016800000221A605A609A60DA601A610023BB6017
:10169000234B1B6C224A43F080531364204B1B6C7A
:1016A00003F08053BB60BB6800237B601D4B1B684D
:1016B00023F440431B4A43F400431360194B1B6857
:1016C00003F440437B607B6802233B620123FB629F
:1016D00010233B630023BB6307F12003184601F08E
:1016E000C1F80346002B01D000F0CAF80F23FB60BD
:1016F00000233B6100237B610023BB610023FB616E
:1017000007F10C030021184601F01CFB0346002BD7
:1017100001D000F0B5F800BF5037BD4680BD00BF16
:10172000003802400070004080B584B000AF3B46F6
:1017300000221A605A609A60DA60214B214A1A60CE
:101740001F4B00225A601E4B00229A601C4B002245
:101750001A611B4B00221A76194B002283F82020B5
:10176000174B0022DA62164B174A9A62144B00227A
:10177000DA60134B0122DA61114B002283F830202A
:101780000F4B01225A610E4800F01EFA0346002B4F
:1017900001D000F075F808233B6001237B60002333
:1017A000BB603B461946064800F0BCFB0346002BD5
:1017B00001D000F065F800BF1037BD4680BD00BF06
:1017C00028020020002001400100000F80B588B0F1
:1017D00000AF07F10C0300221A605A609A60DA60C9
:1017E0001A610023BB60234B1B6B224A43F00103A9
:1017F0001363204B1B6B03F00103BB60BB6800232A
:101800007B601C4B1B6B1B4A43F002031363194B99
:101810001B6B03F002037B607B680022FF211648EC
:1018200001F006F800224FF44071144801F000F86E
:10183000FF23FB6001233B6100237B610023BB612D
:1018400007F10C0319460C4800F070FE4FF440738A
:10185000FB6001233B6100237B610023BB6107F137
:101860000C031946054800F061FE00BF2037BD4655
:1018700080BD00BF0038024000000240000402406A
:1018800080B400AF72B6FEE780B483B000AF00232F
:101890007B60104B5B6C0F4A43F4804353640D4BE9
:1018A0005B6C03F480437B607B6800233B60094BE7
:1018B0001B6C084A43F080531364064B1B6C03F007
:1018C00080533B603B6800BF0C37BD465DF8047B2E
:1018D000704700BF0038024080B58AB000AF786022
:1018E00007F1140300221A605A609A60DA601A61E4
:1018F0007B681B68174A934227D100233B61164B34
:101900005B6C154A43F480735364134B5B6C03F4B4
:1019100080733B613B690023FB600F4B1B6B0E4ADE
:1019200043F0020313630C4B1B6B03F00203FB60D9
:10193000FB6801237B610323BB610023FB6107F18B
:1019400014031946054800F0F1FD00BF2837BD46D5
:1019500080BD00BF0020014000380240000402406A
:1019600080B400AFFEE780B400AFFEE780B400AF04
:10197000FEE780B400AFFEE780B400AFFEE780B4BE
:1019800000AF00BFBD465DF8047B704780B400AF78
:1019900000BFBD465DF8047B704780B400AF00BF58
:1019A000BD465DF8047B704780B500AF00F0CAF813
:1019B00000BF80BD80B586B000AF7860144A154B7B
:1019C000D31A7B617B693B61134B1B68002B02D1EF
:1019D000114B124A1A60104B1A687B6813443A691B
:1019E0009A4207D201F098FB02460C2313604FF095
:1019F000FF3309E0084B1B68FB60074B1A687B68E4
:101A00001344054A1360FB6818461837BD4680BD6D
:101A100000000120000400001C02002078020020C9
:101A200080B400AF084BD3F88830074A43F4700302
:101A3000C2F88830044B4FF000629A6000BFBD4688
:101A40005DF8047B704700BF00ED00E0DFF834D0A4
:101A5000002103E00C4B5B58435004310B480C4B06
:101A600042189A42F6D30B4A02E0002342F8043BA4
:101A7000094B9A42F9D3FFF7D3FF01F053FBFFF76D
:101A800067FD704700000120F06E00080000002094
:101A9000E0010020E001002078020020FEE70000C5
:101AA00080B500AF0E4B1B680D4A43F40073136002
:101AB0000B4B1B680A4A43F480631360084B1B6896
:101AC000074A43F480731360032000F0FBFC0020FE
:101AD00000F008F8FFF7D8FE0023184680BD00BFCD
:101AE000003C024080B582B000AF7860124B1A68AB
:101AF000124B1B7819464FF47A73B3FBF1F3B2FB28
:101B0000F3F3184600F005FD0346002B01D0012336
:101B10000EE07B680F2B0AD8002279684FF0FF3067
:101B200000F0DBFC064A7B681360002300E0012321
:101B300018460837BD4680BD040000200C00002078
:101B40000800002080B400AF064B1B781A46064BF5
:101B50001B681344044A136000BFBD465DF8047B54
:101B6000704700BF0C0000207002002080B400AF5E
:101B7000034B1B681846BD465DF8047B704700BFE9
:101B80007002002080B584B000AF7860FFF7EEFFF0
:101B9000B8607B68FB60FB68B3F1FF3F05D0094B81
:101BA0001B781A46FB681344FB6000BFFFF7DEFF9B
:101BB0000246BB68D31AFA689A42F7D800BF1037BA
:101BC000BD4680BD0C00002080B584B000AF7860B9
:101BD0000023FB737B68002B01D1012333E07B687A
:101BE0001B6C002B09D17868FFF776FE7B6800221A
:101BF0005A647B68002283F83C207B681B6C03F0EE
:101C00001003002B18D17B681B6C23F4885323F03E
:101C1000020343F002027B681A64786800F0A4FAB9
:101C20007B6800225A647B681B6C23F0030343F03B
:101C300001027B681A6401E00123FB737B680022C8
:101C400083F83C20FB7B18461037BD4680BD000062
:101C500080B485B000AF78600023BB607B6893F8E8
:101C60003C30012B01D102238AE07B68012283F8FA
:101C70003C207B681B689B6803F00103012B18D094
:101C80007B681B689A687B681B6842F001029A6057
:101C90003E4B1B683E4AA2FB03239A0C13465B0093
:101CA0001344BB6002E0BB68013BBB60BB68002B18
:101CB000F9D17B681B689B6803F00103012B5ED19F
:101CC0007B681B6C23F4E06323F0010343F4807210
:101CD0007B681A647B681B685B6803F48063002B75
:101CE00007D07B681B6C23F4405343F480527B681D
:101CF0001A647B681B6C03F48053B3F5805F06D1D4
:101D00007B685B6C23F006027B685A6402E07B68A8
:101D100000225A647B68002283F83C201D4BFB6044
:101D20007B681B686FF022021A60FB685B6803F037
:101D30001F03002B0FD17B681B689B6803F0405387
:101D4000002B1CD17B681B689A687B681B6842F07B
:101D500080429A6013E07B681B680F4A93420ED161
:101D60007B681B689B6803F04053002B07D17B689E
:101D70001B689A687B681B6842F080429A60002367
:101D800018461437BD465DF8047B704704000020F8
:101D900083DE1B43002301400020014080B483B058
:101DA00000AF78607B6893F83C30012B01D10223AF
:101DB00021E07B68012283F83C207B681B689A68DD
:101DC0007B681B6822F001029A607B681B689B6835
:101DD00003F00103002B09D17B681B6C23F48853AB
:101DE00023F0010343F001027B681A647B68002240
:101DF00083F83C20002318460C37BD465DF8047B71
:101E0000704780B584B000AF786039600023FB6014
:101E10007B681B689B6803F48063B3F5806F13D104
:101E20007B681B689B6803F48073B3F5807F0BD1DC
:101E30007B681B6C43F020027B681A647B6800227D
:101E400083F83C2001235CE0FFF790FEF8601AE085
:101E50003B68B3F1FF3F16D03B68002B07D0FFF77C
:101E600085FE0246FB68D31A3A689A420BD27B6819
:101E70001B6C43F004027B681A647B68002283F8C1
:101E80003C2003233DE07B681B681B6803F00203D2
:101E9000022BDDD17B681B686FF012021A607B6831
:101EA0001B6C43F400727B681A647B681B689B6838
:101EB00003F04053002B23D17B681B7E002B1FD1E6
:101EC0007B681B68DB6A03F47003002B06D07B6819
:101ED0001B689B6803F48063002B11D17B681B6C2B
:101EE00023F480727B681A647B681B6C03F4805354
:101EF000002B05D17B681B6C43F001027B681A64E0
:101F0000002318461037BD4680BD80B483B000AFB3
:101F100078607B681B68DB6C18460C37BD465DF843
:101F2000047B704780B485B000AF786039600023CF
:101F3000BB607B6893F83C30012B01D1022305E1A3
:101F40007B68012283F83C203B681B68092B25D95C
:101F50007B681B68D9683B681B689BB21A461346AE
:101F60005B0013441E3B072202FA03F3DA437B684B
:101F70001B680A40DA607B681B68D9683B689A680E
:101F80003B681B689BB2184603465B0003441E3B3C
:101F90009A407B681B680A43DA6022E07B681B6812
:101FA00019693B681B689BB21A4613465B001344D1
:101FB000072202FA03F3DA437B681B680A401A61BE
:101FC0007B681B6819693B689A683B681B689BB211
:101FD000184603465B0003449A407B681B680A432B
:101FE0001A613B685B68062B24D87B681B68596BB9
:101FF0003B685A6813469B001344053B1F2202FAB4
:1020000003F3DA437B681B680A405A637B681B68EA
:10201000596B3B681B689BB218463B685A6813466D
:102020009B001344053B00FA03F27B681B680A43DC
:102030005A634CE03B685B680C2B24D87B681B68B8
:10204000196B3B685A6813469B001344233B1F22BD
:1020500002FA03F3DA437B681B680A401A637B6861
:102060001B68196B3B681B689BB218463B685A6833
:1020700013469B001344233B00FA03F27B681B6862
:102080000A431A6323E07B681B68D96A3B685A6875
:1020900013469B001344413B1F2202FA03F3DA4329
:1020A0007B681B680A40DA627B681B68D96A3B68F8
:1020B0001B689BB218463B685A6813469B00134442
:1020C000413B00FA03F27B681B680A43DA62224B49
:1020D000FB607B681B68214A934209D13B681B68FF
:1020E000122B05D1FB685B6843F48002FB685A60E1
:1020F0007B681B68194A934223D13B681B68102BED
:1021000003D03B681B68112B1BD1FB685B6843F451
:102110000002FB685A603B681B68102B11D1104B02
:102120001B68104AA2FB03239A0C13469B0013441E
:102130005B00BB6002E0BB68013BBB60BB68002B7F
:10214000F9D17B68002283F83C200023184614371D
:10215000BD465DF8047B704700230140002001402C
:102160000400002083DE1B4380B485B000AF78609C
:10217000794BFB60FB685B6823F44032FB685A6074
:10218000FB685A687B685B681A43FB685A607B6827
:102190001B685A687B681B6822F480725A607B68EF
:1021A0001B6859687B681B691A027B681B680A43B5
:1021B0005A607B681B685A687B681B6822F0407213
:1021C0005A607B681B6859687B689A687B681B68E3
:1021D0000A435A607B681B689A687B681B6822F414
:1021E00000629A607B681B6899687B68DA687B6824
:1021F0001B680A439A607B689B6A584A934222D0C4
:102200007B681B689A687B681B6822F070629A6022
:102210007B681B6899687B689A6A7B681B680A43BD
:102220009A607B681B689A687B681B6822F0405242
:102230009A607B681B6899687B68DA6A7B681B68B0
:102240000A439A600FE07B681B689A687B681B688A
:1022500022F070629A607B681B689A687B681B68D2
:1022600022F040529A607B681B689A687B681B6802
:1022700022F002029A607B681B6899687B681B7E6B
:102280005A007B681B680A439A607B6893F8203089
:10229000002B1BD07B681B685A687B681B6842F464
:1022A00000625A607B681B685A687B681B6822F46E
:1022B00060425A607B681B6859687B685B6A013BB7
:1022C0005A037B681B680A435A6007E07B681B68F7
:1022D0005A687B681B6822F400625A607B681B683E
:1022E000DA6A7B681B6822F47002DA627B681B681A
:1022F000D96A7B68DB69013B1A057B681B680A4366
:10230000DA627B681B689A687B681B6822F400723B
:102310009A607B681B6899687B6893F830305A0232
:102320007B681B680A439A607B681B689A687B68B5
:102330001B6822F480629A607B681B6899687B68DE
:102340005B699A027B681B680A439A6000BF143776
:10235000BD465DF8047B7047002301400100000F7B
:1023600080B485B000AF78607B6803F00703FB6042
:102370000C4BDB68BB60BA684FF6FF031340BB60D1
:10238000FB681A02BB68134343F0BF6343F4003396
:10239000BB60044ABB68D36000BF1437BD465DF81C
:1023A000047B704700ED00E080B400AF044BDB68B5
:1023B0001B0A03F007031846BD465DF8047B70470F
:1023C00000ED00E080B483B000AF03463960FB71DC
:1023D00097F90730002B0ADB3B68DAB20C4997F912
:1023E00007301201D2B20B4483F800230AE03B68A5
:1023F000DAB20849FB7903F00F03043B1201D2B2B1
:102400000B441A7600BF0C37BD465DF8047B70475D
:1024100000E100E000ED00E080B489B000AFF860BA
:10242000B9607A60FB6803F00703FB61FB69C3F1E5
:102430000703042B28BF0423BB61FB690433062B6D
:1024400002D9FB69033B00E000237B614FF0FF32C0
:10245000BB6902FA03F3DA43BB681A407B699A400E
:102460004FF0FF317B6901FA03F3D9437B680B40DE
:10247000134318462437BD465DF8047B70470000BF
:1024800080B582B000AF78607B68013BB3F1807F9C
:1024900001D301230FE00A4A7B68013B53600F21FF
:1024A0004FF0FF30FFF78EFF054B00229A60044B80
:1024B00007221A60002318460837BD4680BD00BFBA
:1024C00010E000E080B582B000AF78607868FFF778
:1024D00047FF00BF0837BD4680BD80B586B000AF5E
:1024E0000346B9607A60FB7300237B61FFF75CFFF2
:1024F00078617A68B9687869FFF78EFF024697F9C4
:102500000F3011461846FFF75DFF00BF1837BD4674
:1025100080BD80B582B000AF78607868FFF7B0FF0B
:10252000034618460837BD4680BD000080B489B018
:1025300000AF7860396000237B6100233B6100239A
:10254000BB610023FB6159E10122FB6902FA03F33D
:102550007B613B681B687A6913403B613A697B6920
:102560009A4240F048813B685B68012B0BD03B6886
:102570005B68022B07D03B685B68112B03D03B687C
:102580005B68122B30D17B689B68BB61FB695B0089
:10259000032202FA03F3DB43BA691340BB613B68D1
:1025A000DA68FB695B0002FA03F3BA691343BB61A3
:1025B0007B68BA699A607B685B68BB610122FB69D2
:1025C00002FA03F3DB43BA691340BB613B685B6803
:1025D0001B0903F00102FB6902FA03F3BA69134312
:1025E000BB617B68BA695A607B68DB68BB61FB6969
:1025F0005B00032202FA03F3DB43BA691340BB61B9
:102600003B689A68FB695B0002FA03F3BA691343FB
:10261000BB617B68BA69DA603B685B68022B03D0F8
:102620003B685B68122B23D1FB69DA087B680832B0
:1026300053F82230BB61FB6903F007039B000F22B4
:1026400002FA03F3DB43BA691340BB613B681A69C2
:10265000FB6903F007039B0002FA03F3BA69134313
:10266000BB61FB69DA087B680832B96943F822105C
:102670007B681B68BB61FB695B00032202FA03F302
:10268000DB43BA691340BB613B685B6803F003023C
:10269000FB695B0002FA03F3BA691343BB617B6811
:1026A000BA691A603B685B6803F08053002B00F046
:1026B000A2800023FB60564B5B6C554A43F4804379
:1026C0005364534B5B6C03F48043FB60FB68514ADB
:1026D000FB699B08023352F82330BB61FB6903F0AE
:1026E00003039B000F2202FA03F3DB43BA69134092
:1026F000BB617B68484A934219D07B68474A934242
:1027000013D07B68464A93420DD07B68454A93427A
:1027100007D07B68444A934201D1042308E0072391
:1027200006E0032304E0022302E0012300E000238B
:10273000FA6902F0030292009340BA691343BB6145
:102740003449FB699B080233BA6941F82320374BAF
:102750001B68BB613B69DB43BA691340BB613B68E3
:102760005B6803F48033002B03D0BA693B691343E1
:10277000BB612E4ABB6913602C4B5B68BB613B6934
:10278000DB43BA691340BB613B685B6803F4003309
:10279000002B03D0BA693B691343BB61234ABB6971
:1027A0005360224B9B68BB613B69DB43BA691340B2
:1027B000BB613B685B6803F48013002B03D0BA69EC
:1027C0003B691343BB61194ABB699360174BDB68D4
:1027D000BB613B69DB43BA691340BB613B685B6823
:1027E00003F40013002B03D0BA693B691343BB61A8
:1027F0000E4ABB69D360FB690133FB61FB690F2B98
:102800007FF6A2AE00BF2437BD465DF8047B70475B
:10281000003802400038014000000240000402403D
:1028200000080240000C024000100240003C014041
:1028300080B483B000AF78600B467B8013467B701A
:102840007B78002B03D07A887B689A6103E07B88D1
:102850001A047B689A6100BF0C37BD465DF8047BA3
:102860007047000080B586B000AF78607B68002BB1
:1028700001D101235BE27B681B6803F00103002B9D
:1028800075D0A34B9B6803F00C03042B0CD0A04B1A
:102890009B6803F00C03082B12D19D4B5B6803F47B
:1028A0008003B3F5800F0BD1994B1B6803F4003301
:1028B000002B5BD07B685B68002B57D1012336E28D
:1028C0007B685B68B3F5803F06D1914B1B68904AEB
:1028D00043F4803313601DE07B685B68B3F5A02F81
:1028E0000CD18B4B1B688A4A43F480231360884BBE
:1028F0001B68874A43F4803313600BE0844B1B68EA
:10290000834A23F480331360814B1B68804A23F48D
:10291000802313607B685B68002B13D0FFF726F9D8
:10292000386108E0FFF722F902463B69D31A642BAD
:1029300001D90323FBE1764B1B6803F40033002B22
:10294000F0D014E0FFF712F9386108E0FFF70EF954
:1029500002463B69D31A642B01D90323E7E16C4B90
:102960001B6803F40033002BF0D100E000BF7B684C
:102970001B6803F00203002B63D0654B9B6803F0D8
:102980000C03002B0BD0624B9B6803F00C03082B4D
:102990001CD15F4B5B6803F48003002B16D15C4BAA
:1029A0001B6803F00203002B05D07B68DB68012B5A
:1029B00001D00123BBE1564B1B6823F0F8027B6872
:1029C0001B69DB00524913430B603AE07B68DB680C
:1029D000002B20D04F4B01221A60FFF7C7F8386157
:1029E00008E0FFF7C3F802463B69D31A022B01D96E
:1029F00003239CE1464B1B6803F00203002BF0D03D
:102A0000434B1B6823F0F8027B681B69DB004049DD
:102A100013430B6015E03F4B00221A60FFF7A6F846
:102A2000386108E0FFF7A2F802463B69D31A022B8F
:102A300001D903237BE1364B1B6803F00203002B13
:102A4000F0D17B681B6803F00803002B30D07B6853
:102A50005B69002B16D0304B01221A60FFF786F815
:102A6000386108E0FFF782F802463B69D31A022B6F
:102A700001D903235BE1264B5B6F03F00203002BBC
:102A8000F0D015E0244B00221A60FFF76FF8386190
:102A900008E0FFF76BF802463B69D31A022B01D915
:102AA000032344E11A4B5B6F03F00203002BF0D1C8
:102AB0007B681B6803F00403002B00F0A080002358
:102AC000FB75134B1B6C03F08053002B0FD10023BD
:102AD000BB600F4B1B6C0E4A43F0805313640C4BCE
:102AE0001B6C03F08053BB60BB680123FB750B4B71
:102AF0001B6803F48073002B21D1084B1B68074A25
:102B000043F480731360FFF731F8386111E000BFC0
:102B10000038024000004742800E474200700040EB
:102B2000FFF724F802463B69D31A022B01D903238D
:102B3000FDE0814B1B6803F48073002BF0D07B68B1
:102B40009B68012B06D17D4B1B6F7C4A43F0010330
:102B500013671CE07B689B68052B0CD1774B1B6FC0
:102B6000764A43F004031367744B1B6F734A43F0B8
:102B7000010313670BE0714B1B6F704A23F00103D5
:102B800013676E4B1B6F6D4A23F0040313677B685A
:102B90009B68002B15D0FEF7E9FF38610AE0FEF7CD
:102BA000E5FF02463B69D31A41F28832934201D9CC
:102BB0000323BCE0614B1B6F03F00203002BEED03C
:102BC00014E0FEF7D3FF38610AE0FEF7CFFF0246BC
:102BD0003B69D31A41F28832934201D90323A6E01C
:102BE000564B1B6F03F00203002BEED1FB7D012B34
:102BF00005D1524B1B6C514A23F0805313647B6800
:102C00009B69002B00F092804C4B9B6803F00C03F7
:102C1000082B5CD07B689B69022B41D1484B00227A
:102C20001A60FEF7A3FF386108E0FEF79FFF024637
:102C30003B69D31A022B01D9032378E03F4B1B6871
:102C400003F00073002BF0D17B68DA697B681B6AA4
:102C50001A437B685B6A9B011A437B689B6A5B082B
:102C6000013B1B041A437B68DB6A1B063349134391
:102C70004B60334B01221A60FEF778FF386108E0A1
:102C8000FEF774FF02463B69D31A022B01D90323D6
:102C90004DE02A4B1B6803F00073002BF0D045E099
:102CA000274B00221A60FEF761FF386108E0FEF74B
:102CB0005DFF02463B69D31A022B01D9032336E09C
:102CC0001E4B1B6803F00073002BF0D12EE07B68D5
:102CD0009B69012B01D1012329E0184B5B68FB6044
:102CE000FB6803F480027B68DB699A421CD1FB68B5
:102CF00003F03F027B681B6A9A4215D1FA6847F6D7
:102D0000C07313407A68526A93420DD1FB6803F492
:102D100040327B689B6A9A4206D1FB6803F070627E
:102D20007B68DB6A9A4201D0012300E00023184649
:102D30001837BD4680BD00BF00700040003802401B
:102D40006000474280B584B000AF786039607B682E
:102D5000002B01D10123CCE0684B1B6803F00F036B
:102D60003A689A420CD9654B3A68D2B21A70634BF2
:102D70001B6803F00F033A689A4201D00123B8E0C0
:102D80007B681B6803F00203002B20D07B681B6864
:102D900003F00403002B05D0594B9B68584A43F4B9
:102DA000E05393607B681B6803F00803002B05D099
:102DB000534B9B68524A43F460439360504B9B686B
:102DC00023F0F0027B689B684D4913438B607B685E
:102DD0001B6803F00103002B44D07B685B68012B68
:102DE00007D1474B1B6803F40033002B19D1012393
:102DF0007FE07B685B68022B03D07B685B68032BFA
:102E000007D13F4B1B6803F00073002B09D101234E
:102E10006FE03B4B1B6803F00203002B01D1012341
:102E200067E0374B9B6823F003027B685B6834499B
:102E300013438B60FEF79AFEF8600AE0FEF796FEF9
:102E40000246FB68D31A41F28832934201D9032328
:102E50004FE02B4B9B6803F00C027B685B689B0088
:102E60009A42EBD1254B1B6803F00F033A689A4254
:102E70000CD2224B3A68D2B21A70204B1B6803F076
:102E80000F033A689A4201D0012332E07B681B6845
:102E900003F00403002B08D0194B9B6823F4E05285
:102EA0007B68DB68164913438B607B681B6803F003
:102EB0000803002B09D0124B9B6823F460427B6807
:102EC0001B69DB000E4913438B6000F021F80146BB
:102ED0000B4B9B681B0903F00F030A4AD35C21FAD2
:102EE00003F3094A1360094B1B681846FEF7FAFD05
:102EF000002318461037BD4680BD00BF003C02408D
:102F000000380240146C0008040000200800002073
:102F1000F0B585B000AF00237B600023FB60002389
:102F20003B600023BB60504B9B6803F00C03042BF9
:102F300007D0082B08D0002B40F08D804B4BBB6096
:102F40008CE04B4BBB6089E0474B5B6803F03F0371
:102F50007B60454B5B6803F48003002B23D0424B1E
:102F60005B689B094FF0000440F2FF114FF0000234
:102F700003EA010504EA02063D4A02FB06F10022CB
:102F800002FB05F20A443A49A5FB01015318194610
:102F90007B684FF000041A462346FDF77DFE03468A
:102FA0000C46FB6049E0304B5B689B094FF0000426
:102FB00040F2FF114FF0000203EA010504EA0206A5
:102FC000294632464FF000034FF00004540144EA12
:102FD000D1644B0119462246491B62EB06024FF0B1
:102FE00000034FF00004940144EA91648B015B1AE2
:102FF00064EB02044FF000014FF00002E20042EAED
:103000005372D9000B4614465B1944EB06044FF08B
:1030100000014FF00002A20242EA935299020B46CD
:103020001446184621467B684FF000041A46234692
:10303000FDF732FE03460C46FB600B4B5B681B0C36
:1030400003F0030301335B003B60FA683B68B2FBAB
:10305000F3F3BB6002E0054BBB6000BFBB681846E2
:103060001437BD46F0BD00BF003802400024F40014
:1030700040787D0180B400AF034B1B681846BD4605
:103080005DF8047B704700BF0400002080B500AFEE
:10309000FFF7F0FF0146054B9B689B0A03F007030F
:1030A000034AD35C21FA03F3184680BD003802407E
:1030B000246C000880B483B000AF786039607B680E
:1030C0000F221A60124B9B6803F003027B685A6060
:1030D0000F4B9B6803F0F0027B689A600C4B9B6877
:1030E00003F4E0527B68DA60094B9B68DB0803F469
:1030F000E0527B681A61074B1B6803F00F023B68C4
:103100001A6000BF0C37BD465DF8047B704700BFF6
:1031100000380240003C0240014B1868704700BF75
:103120001000002070B50D4E0D4CA41BA4100025FE
:10313000A54209D10B4E0C4C03F058FDA41BA41062
:103140000025A54205D170BD56F8253098470135B8
:10315000EEE756F8253098470135F2E7E86E0008AB
:10316000E86E0008E86E0008EC6E000802440346B2
:10317000934200D1704703F8011BF9E72DE9FF479F
:1031800055EC104B0D9FDDF830A0002D0E469146FA
:103190001946B8BF22462B4627F02007BBBF05F1D2
:1031A00000431D4600232D23B8BF1446462F0B7045
:1031B00004D0452F00D10136022100E0032103ABEA
:1031C000019302AB00933246534645EC104B01F09D
:1031D00077FD472F804602D119F0010F26D0462FE8
:1031E00008EB060911D198F80030302B0AD10022E3
:1031F000002320462946FDF76FFC18B9C6F10106E9
:10320000CAF80060DAF80030994400220023204612
:103210002946FDF761FC38B93022039B4B4505D2A6
:10322000591C03911A70F8E7CDF80C90039B0E9A85
:10323000A3EB08034046136004B0BDE8F087F7B580
:1032400000290446BABF49422D232B23092904F83B
:10325000022B437020DD0DF107031F460A2691FB68
:10326000F6F506FB15113031092D03F8011C03F1A9
:10327000FF32294609DC3031023B02F8011CBB4217
:10328000224604D3101A03B0F0BD1346E7E713F843
:10329000012B04F8012BF2E7302319448370021D3F
:1032A000C170EFE72DE9F04F8DB00C46DDF8588086
:1032B00016461F46054602F0E7FD036804931846CC
:1032C000FCF78EFF00230A93D8F8003005900733EF
:1032D00023F0070303F1080294F818A0D4F800B013
:1032E000C8F80020D3E90023C4E91223D4E91289E5
:1032F00029F000430793CDF818804FF0FF32A74B19
:10330000DDE90601FDF71AFC70BB4FF0FF32A34B5D
:10331000DDE90601FDF7F4FB30BB00220023404647
:103320004946FDF7E3FB10B12D2384F843309C4A56
:103330009C4BBAF1470F8CBF9046984603232BF065
:103340000402236122604FF00009009733460BAA64
:103350002146284600F0E6F9013040F08D804FF01C
:10336000FF300DB0BDE8F08F42464B46404649461F
:10337000FDF7E4FB10B18C4A8C4BDAE761684B1C1B
:103380004BF480620AA83ED1062363600023CDE996
:10339000020309AB009349EC108B0DF1230322606B
:1033A000CDF804A061682846FFF7E8FE0AF0DF03C5
:1033B000472B804609D1099BD81C02DB62689342E7
:1033C00047DDAAF1020A5FFA8AFABAF1650F099994
:1033D00024D80139524604F150000991FFF72FFF1C
:1033E0000A9A1318012A8146236102DC2268D10758
:1033F00001D5013323619DF82330002BA5D02D2367
:1034000084F84330A1E7BAF1670F00F07781BAF191
:10341000470FBBD10029B9D10123B6E7BAF1660F36
:1034200019D1002963680CDD216113B92268D20724
:1034300002D501330B442361099BA3654FF00009BA
:10344000D9E713B92268D00701D50233F3E7012386
:10345000F1E74FF0670ADDE90932934205DB2268A4
:103460002361D107E8D50133E5E7002BD4BFC3F1D1
:10347000020301231344DEE723685A0507D42369B6
:10348000424631462846B84701302BD167E7BAF1AA
:10349000650F40F2DC8000220023D4E91201FDF721
:1034A0001BFB002833D00123414A31462846B84748
:1034B00001303FF454AFDDE909239A4202DB23686F
:1034C000D8070FD5DDE9042331462846B847013037
:1034D0003FF445AF4FF0000804F11A090A9B013B85
:1034E000434509DC23689B0700F10381E0680B9BDF
:1034F0009842B8BF184634E701234A463146284669
:10350000B84701303FF42BAF08F10108E6E7099B0B
:10351000002B2BDC0123264A31462846B8470130D0
:103520003FF41DAF099B23B90A9B13B92368D90740
:10353000D8D5DDE9042331462846B84701303FF4A9
:103540000EAF4FF0000904F11A0A099B5B424B458C
:1035500001DC0A9B94E70123524631462846B847CE
:1035600001303FF4FCAE09F10109EEE70A9AA36DC0
:103570009A42A8BF1A46002A914607DD13463146F3
:1035800042462846B84701303FF4E9AE04F11A0339
:103590004FF0000B29EAE979069315E0FFFFEF7F72
:1035A000306C00082C6C0008386C0008346C000883
:1035B0003C6C00080123069A31462846B847013082
:1035C0003FF4CDAE0BF1010BD4F858A0AAEB0903E0
:1035D0005B45EFDCDDE909239A42D04415DB236823
:1035E000DA0712D40A9B0999A3EB0A02A3EB010A9A
:1035F0009245A8BF9246BAF1000F0EDC4FF00008CA
:103600002AEAEA7A04F11A0919E0DDE904233146CD
:103610002846B8470130E5D1A1E653464246314637
:103620002846B8470130E9D199E601234A46314698
:103630002846B84701303FF492AE08F10108DDE9B1
:1036400009239B1AA3EB0A034345EEDC4AE70A9AD7
:10365000012A01DCDB073AD50123424631462846E0
:10366000B84701303FF47BAEDDE9042331462846FC
:10367000B847013008F101083FF471AE0A9B0022FF
:1036800003F1FF3AD4E912010023FDF725FAC8B986
:103690005346424631462846B84701300ED15EE6D1
:1036A0000123524631462846B84701303FF457AE11
:1036B00008F101080A9B013B4345F1DC4B4604F14C
:1036C0005002DEE64FF0000804F11A0AF2E7012387
:1036D000DFE701234A4631462846B84701303FF428
:1036E0003EAE08F10108E3680B9A9B1A4345F0DCF3
:1036F000FCE64FF0000804F11909F4E700293FF453
:103700008BAE0023CDE9020309AB009349EC108B8B
:103710002260CDF804A00DF123032846FFF72EFD0B
:10372000804648E62DE9F04791461F468A680B69B6
:10373000DDF820809342B8BF1346C9F8003091F8F5
:10374000432006460C4612B10133C9F80030236805
:10375000990642BFD9F800300233C9F80030256815
:1037600015F0060507D104F1190AE368D9F800201D
:103770009B1AAB4228DC94F843302268003318BF10
:10378000012392062DD404F1430239463046C04746
:10379000013020D02368E568D9F8002003F0060343
:1037A000042B08BFAD1AA36822690CBF25EAE57592
:1037B00000259342C4BF9B1AED184FF000091A343C
:1037C0004D451AD1002008E00123524639463046C3
:1037D000C047013003D14FF0FF30BDE8F08701351D
:1037E000C3E7E1185A1C302081F84300224494F8C2
:1037F000451082F843100233C5E7012322463946BB
:103800003046C0470130E6D009F10109D8E7000091
:103810002DE9F04301F1430C0C46097E85B06E2979
:103820001746064698460C9A00F0B38022D86329C2
:1038300036D00AD8002900F0B980582900F08380DA
:1038400004F1420584F8421032E0642901D069296C
:10385000F6D120681368050603F104012AD51B6818
:103860001160002B03DA2D225B4284F843206F485D
:103870000A2239E0732900F09D8008D86F2920D0F2
:103880007029DDD1236843F02003236003E075290C
:1038900017D07829D4D1782384F84530644855E08E
:1038A0001368191D1B68116004F1420584F8423049
:1038B00001238CE01B68116010F0400F18BF1BB291
:1038C000CFE713682568181D1060280601D51B680E
:1038D00002E06806FBD51B8854486F2914BF0A22F2
:1038E0000822002184F843106568A560002DC0F20D
:1038F0009580216821F004012160002B3DD1002D2D
:1039000040F08E806546082A0BD12368DB0708D576
:10391000236962689A42DEBF302305F8013C05F155
:10392000FF35ACEB05032361CDF800803B4603AACD
:1039300021463046FFF7F6FE01304DD14FF0FF3003
:1039400005B0BDE8F083394884F845101368216854
:103950001D1D1B6815600A060BD5CA0744BF41F040
:10396000200121601BB9226822F02002226010226F
:10397000B7E74D0648BF9BB2EFE76546B3FBF2F1F0
:1039800002FB1133C35C05F8013D0B460029F5D15C
:10399000B9E7136825686169181D106028061B685F
:1039A00001D5196002E06A06FBD519800023236166
:1039B0006546B9E71368191D11601D68626800212A
:1039C0002846FCF715FC08B1401B60606368236162
:1039D000002384F84330A7E723692A463946304656
:1039E000C0470130AAD023689B0713D4E068039B2B
:1039F0009842B8BF1846A3E701234A4639463046E5
:103A0000C04701309AD00135E368039A9B1AAB4254
:103A1000F2DCEBE7002504F11909F5E7002BACD146
:103A2000037884F8423004F142056CE73E6C0008EC
:103A30004F6C00082DE9F04F9A468B6816465A1EC7
:103A4000B2F5AE7F87B083BF6FF4AE729B1801935F
:103A5000002386BF40F25D138B6001930B6888469C
:103A60004FF0000B43F4F06348F81C3BCDE903BB77
:103A700007460C4645465A46D946CDF808B0A168D7
:103A800081B133681B78492B71D04DD8392B40D880
:103A9000312B80F088802D2B00F0908015D82B2BB7
:103AA00000F08C80B9F1000F03D0236823F48073F9
:103AB0002360013A012A00F2EA80454500F2DC80E9
:103AC0000126304607B0BDE8F08F2E2B00F09F8016
:103AD000302BE7D1206810F4807F64D0019B20F068
:103AE0008000206009F101091BB1013B0131019304
:103AF000A160A368013BA36023690133236173685C
:103B0000013B002B736040F3AC80336801333360BA
:103B1000B5E7452B00F08580462B6AD0412BC1D1FB
:103B2000012ABFD1022246E0652B7AD018D8542B47
:103B300066D011D84E2BB5D1002A46D1B9F1000F6D
:103B400045D1216801F4E060B0F5E06F3FD121F488
:103B5000F061216001222EE0592B1ED0612BDEE79F
:103B60006E2BE9D015D8662B43D0692B9AD1BBF1C7
:103B7000000F38D1B9F1000F97D1216801F4E0604E
:103B8000B0F5E06F95D121F4F06121604FF0010BA9
:103B900011E0742B34D0792B84D1BBF1070F81D184
:103BA0004FF0080B07E012EB0B0F7FF47BAF21689F
:103BB00021F4C07121602B7001359AE72168080655
:103BC0007FF570AF21F08001F4E7022A47D0BBF106
:103BD000010F03D0BBF1040F7FF464AF0BF1010BB5
:103BE0005FFA8BFBE7E7BBF1030FF7D0BBF1050FE3
:103BF000F2E7BBF1020F7FF455AF4FF0030BDAE7AA
:103C0000BBF1060F7FF44EAF4FF0070BD3E72168EF
:103C100088057FF547AF21F420712160CDF8089029
:103C2000C9E7216801F4A060B0F5806F06D04805AF
:103C30007FF538AFB9F1000F3FF43BAF880558BFAF
:103C4000029821F4F06158BFA9EB000041F4C07163
:103C500058BFCDE9030521604FF00009ABE703220F
:103C6000A9E7D4F880310592314638469847059A3D
:103C700000283FF404AF15E7D4F87C3115F8011D96
:103C80003246384698472369013B236115E70BF11B
:103C9000FF33062B0AD8BBF1020F68D9ABF1030B37
:103CA0005FFA8BFBA5EB0B0B5D454BD12368DA0567
:103CB0001FD55B0568D415F8011C2369652903F13C
:103CC000FF3305F1FF3B23610DD045290BD0D4F81C
:103CD0007C31324638469847236915F8021C013B6F
:103CE000A5F1020B2361D4F87C313246384698475F
:103CF0005D46266816F010067AD12E70236803F40C
:103D0000C063B3F5806F42D1029BA9EB03035A4213
:103D1000002B49D100224146384600F0A5FE256817
:103D2000DAF8003015F0020F03F1040259EC108BA1
:103D3000CAF8002043D01B68C3E90089E368013357
:103D4000E360BEE6D4F87C3115F8011D32463846F2
:103D500098472369013B2361A6E7D4F87C3115F825
:103D6000011D3246384698472369013B236145458A
:103D7000F3D8A5E6D4F87C3115F8011D3246384653
:103D800098472369013B23614545F3D898E6039B97
:103D9000002BBFD004990A2332460131384600F087
:103DA000EFFE039B049DC21A04F26F139D4228BFCD
:103DB00004F5B7750F49284600F024F8AAE715F076
:103DC0000405B8D11F6810EE102A4B4610EE100AF9
:103DD0004946FCF7B3FE28B1284600F00DF887ED00
:103DE000000AABE740464946FCF706FF3860A5E706
:103DF000002666E6606C00089FED010A704700BF70
:103E00000000C07F0EB400B59CB01DAB02900690C0
:103E10006FF00041094807910491094953F8042BB8
:103E200005910068019302A902F070FD029B002237
:103E30001A701CB05DF804EB03B07047100000204E
:103E40000802FFFF70B504460D4645EC104B1646C0
:103E500002F018FB51EC100B7EB1C5F30A53C3F10D
:103E60006B03002B09DD1B0503F17F55002405F5CD
:103E7000401522462B46FCF7C7FB70BD0000000032
:103E80002DE9F04F1F46A1B00023814638460E466B
:103E900017921C9301F0F5FF80460068FCF7A0F92B
:103EA0004FF0000A04464FF0000B1B961B9B1A783C
:103EB0000D2A32D8092A36D2002A3ED000230D938B
:103EC0001B9D2B78302B40F0AC806B78582B01D0A9
:103ED000782B67D10D9B01931CAB009302971DAB10
:103EE000884A1BA9484601F0F2FC10F00704064678
:103EF00005D0062C2BD1013500231B950D93179B64
:103F0000002B40F09A850D9BE3B152460BF1004324
:103F100043EC102B21B0BDE8F08F2B2A15D02D2AB1
:103F200004D0202ACAD101331B93BFE701220D928E
:103F30005A1C1B925B78002BC2D1179B1B96002B3F
:103F400040F0798552465B46E2E70022EFE71C9A93
:103F50003AB135211EA802F08DFB1C99484601F0AC
:103F6000FAFF013C042C06D8DFE804F00A0314171A
:103F70000A00DDE91EAB3007C1D54BF0004BBEE7B0
:103F8000DDE91EA31D9A23F4801302F2334243EAB3
:103F9000025BF0E7DFF870B1EDE76FF0004B4FF038
:103FA000FF3AE8E71B9B5A1C1B925B78302BF9D039
:103FB000002BA4D00123002506931B9B0893079593
:103FC00005950A221B980778A7F13003D9B2092971
:103FD00029D92246D8F8001002F0A0FD002831D0DF
:103FE0000020059C04903B460246652B01D0452BE2
:103FF00014D124B910B9069B002B9ED000241B9E1F
:10400000731C1B9373782B2B78D02D2B70D04FF013
:10401000000CA3F13007092F7CD91B964FF0000E3E
:104020009AE00023C7E705990829DDBF079902FB3D
:104030000133079302FB0535059B013001330593DE
:104040001B90BFE71B9B1A191B92059A1B5D002A48
:1040500037D0059C0246A3F13001092913D901216B
:104060000491C2E71B9B5A1C1B925B780130302BDA
:10407000F8D0A3F13102082A00F2E4841B9A0892D6
:10408000024600200446B3F1300E00F1010112D0C7
:104090000A4400EB040C21460A278C4513D1211851
:1040A000082904F10104044419DC079B0A2101FBDF
:1040B00003E3079300211B9B581C1B905B78084669
:1040C000C9E70598D3E7082901F1010103DC079B43
:1040D0007B430793E1E71029D8BF7D43DDE7102C30
:1040E000DCBF0A2101FB05E5E4E70123049381E736
:1040F0004FF0010CB31C1B93B3788AE74FF0000C10
:10410000F8E700BF686C00080000F07F1B9B5F1C95
:104110001B975B78302BF9D0A3F13107082F3FF6BE
:104120007DAFA3F1300E1B9B0A931B9B5F1C1B975B
:104130005B78A3F13008B8F1090F37D90A997F1AD3
:10414000082F44F61F6737DCBE45A8BFBE46BCF14A
:10415000000F01D0CEF1000E002C51D100287FF4C9
:10416000CEAE069A002A7FF4CAAE049A002A7FF4E3
:10417000E4AE4E2B27D021DC492B7FF4DEAEA049E4
:104180001BA801F0D7FD00283FF4D7AE1B9B9D492B
:10419000013B1BA81B9301F0CDFD10B91B9B013304
:1041A0001B93DFF874B24FF0000AA8E60A2101FB66
:1041B0000E3EAEF1300EB8E7BE46C8E7692BDED042
:1041C0006E2B7FF4BAAE90491BA801F0B3FD002816
:1041D0003FF4B3AE1B9B1B78282B0ED11EAA8B4934
:1041E0001BA801F0BBFD052807D11F9BDDF878A0B7
:1041F00043F0FF4B4BF4E00B81E6DFF824B2D2E74B
:10420000AEEB02030693059B0798002B08BF2346DD
:10421000102C0593A046A8BF4FF01008FCF77AF9C0
:10422000092C82468B4613DC069B002B3FF467AEBD
:10423000069B7ADD162B61DC754A02EBC30EDEE9C4
:10424000000152465B46FCF7DFF982468B4656E694
:104250006F4B03EBC80353E91223FCF7D5F906466D
:1042600028460F46FCF756F902460B4630463946BB
:10427000FCF714F80F2C82468B46D5DD069BA4EB89
:1042800008089844B8F1000F40F3968018F00F0327
:104290000AD05F4901EBC30152465B46D1E90001F8
:1042A000FCF7B2F982468B4638F00F0873D0B8F5A8
:1042B0009A7F47DD0024A046079405942223DFF867
:1042C00058B1C9F800304FF0000A079B002B3FF4AB
:1042D00016AE1C99484601F03EFE0599484601F08D
:1042E0003AFE4146484601F036FE0799484601F03D
:1042F00032FE2146484601F02EFE00E6069AC4F141
:1043000025039342BADB424DC4F10F0405EBC4010F
:1043100052465B46D1E90001FCF776F9069B1C1B6F
:1043200005EBC405D5E900238DE713F1160FA5DBD6
:10433000374AA2EBC302D2E9002350465946FCF7A4
:104340008DFA82E70023334E4FEA2818504659462B
:104350001D46B8F1010F21DC0BB182468B462D4B77
:10436000ABF1547B03EBC50552465B46D5E9000132
:10437000FCF74AF9284B0A460B4028498B428246F3
:1043800098D8A1F580118B4286BFDFF898B04FF026
:10439000FF3A02F1547B0023049377E018F0010FF9
:1043A00006D006EBC503D3E90023FCF72DF9012362
:1043B00001354FEA6808CCE7EDD0C8F1000818F0E5
:1043C0000F020AD0124B03EBC20350465946D3E901
:1043D0000023FCF743FA82468B465FEA2818DAD0BE
:1043E000B8F11F0F20DD0024A04607940594222376
:1043F0004FF0000A4FF0000BC9F8003065E700BF2E
:10440000316C0008BB6C0008396C00087C6C00083B
:10441000F86C0008D06C00080000F07F0000A07C61
:104420000000F8FFFFFFEF7F18F0100318BF6A23AA
:10443000A04D0493504659460023B8F1000F00F3F5
:104440000A810BB182468B46049BBBB1CBF30A5366
:10445000C3F16B03002B594610DD1F2B40F307817E
:10446000342BDEBF203B4FF0FF3202FA03F34FF054
:10447000000ACCBF4FF05C7B03EA010B0022002353
:1044800050465946FCF728FB0028ACD1079B009307
:10449000059A08992346484601F0AFFD0790002889
:1044A0003FF408AF069A069B002AC3F10003A8BF99
:1044B00000230E93002422EAE2731693A046079B82
:1044C0004846596801F013FD059000283FF4F6AE08
:1044D000079B1A69023203F10C0192000C3001F0C3
:1044E000FBFC1EAA1DA94BEC10AB4846CDE908AB5E
:1044F00002F03EF81C9000283FF4E0AE012148464F
:1045000001F007FE804600283FF4D8AE1D9E1E9A9B
:10451000002EABBF0E9B169B169D0E9FACBFF718CF
:104520009D1B049BF61A1644634B013E9E42C2F14A
:10453000360280F2AF809B1B1F2BA2EB03024FF0D1
:10454000010100F39B8001FA03F30F9300230A9308
:10455000BE18049BB74215441D443B46A8BF3346D2
:10456000AB42A8BF2B46002BC2BFF61AED1AFF1AAA
:104570000E9BBBB141461A46484601F069FE804693
:1045800000283FF49BAE01461C9A484601F0CAFD44
:104590000C9000283FF492AE1C99484601F0DBFCD9
:1045A0000C9B1C93002E7ADC069B002B08DD169AD0
:1045B0000599484601F04CFE059000283FF47EAE78
:1045C000002D08DD2A460599484601F08FFE05902A
:1045D00000283FF473AE002F08DD41463A464846B6
:1045E00001F084FE804600283FF468AE059A1C99CD
:1045F000484601F0E9FE044600283FF45FAEC36878
:104600000C930023C360414601F0C4FE002855DA34
:104610000C9BE3B9BAF1000F19D1CBF31303B3B973
:104620002BF000431B0D1B05B3F1D66F0FD9636947
:1046300013B92369012B0ADD21460122484601F006
:1046400055FE4146044601F0A5FE002867DC049BA8
:10465000002B71D13DE618F0010F04D0D5E90023FD
:10466000FBF7D2FF01234FEA68080835E5E64FF073
:10467000FF3202FA03F303EA0A0AFFE6C6F17F46B5
:1046800006F57F0606F57B46E23601FA06F30A9345
:104690000F915DE700230A9301230F9358E73246F9
:1046A0001C99484601F022FE1C9000287FF47CAF44
:1046B00004E600BF906C000802FCFFFF5D4640F07E
:1046C00086800C9ACBF313032AB3AF4A934253D19B
:1046D000049B5046D3B1AD4A2A40B2F1D46F4FF09B
:1046E000FF3116D8120DC2F16B0301FA03F39842A1
:1046F00042D1A74B9D4202D101303FF4DFADA34B25
:104700002B4003F5801B4FF0000AA0E74FF0FF336A
:10471000EDE70B46EBE77BBBBAF1000F2CD1049918
:104720009A4A5B46F1B102EA0B01B1F1D66F19DC8E
:10473000B1F15C7F7FF75BAE964A0023CDE914327E
:1047400050465946DDE91423FBF75EFF82468B464F
:1047500000297FF4BEAD00287FF4BBAD2223C9F849
:104760000030B6E51340A3F580136FEA135B6FEAE0
:104770000B5B4FF0FF3A6AE70A9B93B12B423FF481
:1047800066AF0C9B049A5046594673B1FFF75AFB2B
:1047900002460B46DDE90801FBF780FD82468B46A9
:1047A00055E70F9B13EA0A0FE9E7FFF74BFB0246B9
:1047B0000B46DDE90801FBF76FFD0022002382466E
:1047C0008B46FCF789F900287FF411AE3FE741469C
:1047D000204601F01CFF57EC106B00224FF0804385
:1047E00010EE100A3946FCF78BF9002877D00C9BA5
:1047F000002B4AD0684B0022CDE90A23664F0026E1
:10480000624B2B400F930F9A644B9A4240F0CE803C
:10481000DDE90823DDE90A01A5F1547B4BEC10AB7F
:10482000CDE91423CDE90A0101F02CFEDDE90A01EE
:1048300053EC102BFBF7E8FE52465B46FBF72EFDD0
:104840000B465249564A1940914282465BD9099B10
:1048500002F15472934203D1089B01333FF42EAD11
:10486000DFF82CB14FF0FF3A1C99484601F073FB7A
:104870000599484601F06FFB4146484601F06BFB45
:104880002146484601F067FB19E6BAF1000F1AD13C
:10489000CBF31303EBB900223F4B30463946FCF70C
:1048A00025F9C8B93046394600223E4BFBF7ACFE2D
:1048B00006460F4607F1004318961993DDE91823C1
:1048C000CDE90A239CE7BAF1010F02D1002D3FF494
:1048D0008EAD0022344B8FE70026324FEAE7314B92
:1048E000304639460022FBF78FFE0C9B06460F46EA
:1048F00033B901F1004310901193DDE91023DFE794
:10490000CDE91067F9E703F1547B049B002BABD191
:104910002BF000431B0D0F9A1B059A425D46A3D155
:1049200039463046FCF720F9FBF704FE0B460246F9
:1049300039463046FBF7B0FC0C9B06460F4633B9B0
:10494000BAF1000F03D1CBF31305002D6DD00AA3EC
:10495000D3E9002330463946FCF7C8F800287FF435
:10496000B8AC07A3D3E9002330463946FCF7DCF89E
:1049700000283FF479AFACE49535A094FFFFDF3F0A
:1049800035E5AF350000E03FFFFF0F000000F07F8E
:10499000FFFFEF7F000050390000F03F0000E07F94
:1049A000FFFF9F7C0000E03F0000F0BF049B33B39B
:1049B0000F9BB3F1D46F22D827A3D3E9002330464D
:1049C0003946FCF79DF8A0B139463046FCF7F4F8BB
:1049D000002808BF0120FBF79DFD0C9B06460F46F3
:1049E00003BB01F1004312901393DDE91223CDE9DB
:1049F0000A230B9B0F9A03F1D6639B1A0B939DED31
:104A0000080BDDE90AAB01F03DFD504653EC102BDD
:104A10005946FBF7F9FDDDE90823FBF73FFC824629
:104A20008B4672E7CDE91267DFE70DA3D3E90023D8
:104A3000FCF75CF89CE700230D93179A1B9B13600F
:104A4000FFF761BA652B4FF000023FF44EAB012136
:104A500014460491FFF7CBBA0000C0FFFFFFDF410F
:104A60009535A094FFFFCF3F054B1B6810B41B6A20
:104A7000044C002B08BF23465DF8044BFFF700BA37
:104A800010000020740000202DE9F0478046894680
:104A900092461E460F463D46089815F8014B01F018
:104AA000EDF92044437813F0080332D12D2C32D194
:104AB0007C78BD1C0122002E5DD0102E09D1302C37
:104AC00007D12B7803F0DF03582B4FD16C781026D9
:104AD0000235002A14BF4FF000416FF0004100275B
:104AE000B1FBF6FC384606FB1C1EA4F13003092B73
:104AF00017D81C46A64223DD7B1C07D084451CD357
:104B000001D1A64519DB00FB0640012715F8014B32
:104B1000EBE72F46BFE72B2C04BFBD1C7C781A4661
:104B2000C9E7A4F14103192B01D8373CE2E7A4F10E
:104B30006103192B04D8573CDCE74FF0FF37E5E75A
:104B40007B1C08D12223C8F800300846BAF1000FB8
:104B500007D1BDE8F08702B14042BAF1000FF8D0AA
:104B60000FB105F1FF39CAF80090F2E73024002EAA
:104B7000AFD10826ADE7302CA3D00A26A9E7000064
:104B800037B5064C064D2468246A002C08BF2C4615
:104B90000094FFF779FF03B030BD00BF1000002084
:104BA000740000202DE9F74F03690C69A342804689
:104BB000C0F28280013C01F114074FEA840C00F13D
:104BC000140657F8245056F8240006EB0C03013560
:104BD00007EB0C090193B0FBF5F595B34FF0000A14
:104BE0003846B646D34650F8042B93B205FB03A3D0
:104BF0004FEA134A9BB2ABEB0303120CDEF800B092
:104C000005FB02A213FA8BF34FEA124A1FFA82FB4A
:104C1000DEF80020CBEB124202EB23429BB243EAC8
:104C2000024381454FEA224B4EF8043BDBD256F853
:104C30000C3033B9019B043B9E421A4630D3C8F86E
:104C40001040404601F0A6FB002825DB0135304628
:104C50004FF0000C57F8042BD0F800E093B2ACEB07
:104C60000303120C13FA8EF3C2EB1E4202EB234233
:104C70009BB243EA0243B9454FEA224C40F8043B59
:104C8000E8D256F8242006EB84032AB9043B9E425E
:104C90001A460BD3C8F81040284603B0BDE8F08F81
:104CA0001268043B002ACAD1013CC5E71268043BE4
:104CB000002AEFD1013CEAE70020EEE70000000007
:104CC0002DE9F04F57EC106B97B0456A06910446FA
:104CD0000B921293DDF88080CDE900673DB910207A
:104CE00001F0E0F86062C0E901550560C560636AE3
:104CF000196851B15A684A60012393408B6020467D
:104D000001F029F9636A00221A603B1EBBBF23F041
:104D10000043019300230122ACBFC8F80030C8F85B
:104D20000020AF4BDDF8048033EA080314D1129A57
:104D300042F20F731360009B23B9C8F313000028DD
:104D400000F04285219BDFF8ACB2002B00F04485D7
:104D50000BF1030300F03EBDDDE9006700220023F4
:104D600030463946FBF7B8FE814668B1129A0123F6
:104D70001360219B002B00F024859A4B219A03F1AC
:104D8000FF3B136000F028BD14AA15A947EC106B77
:104D9000204601F0EDFBC8F30A550490002D7CD0AD
:104DA000C7F3130343F07F5BB2464BF4401BA5F2FD
:104DB000FF35CDF84C9000228B4B50465946FBF7FF
:104DC0006BFA81A3D3E90023FBF71EFC80A3D3E990
:104DD0000023FBF763FA064628460F46FBF7AAFBBB
:104DE0007DA3D3E90023FBF70FFC02460B463046B8
:104DF0003946FBF753FA06460F46FBF7B5FE00228D
:104E00008246002330463946FBF770FE48B15046D3
:104E1000FBF790FB32463B46FBF75EFE08B90AF112
:104E2000FF3ABAF1160F59D8704901EBCA01DDE912
:104E30000023D1E90001FBF777FE002850D00AF1EA
:104E4000FF3A00230F93149B5D1BB5F1010849BF86
:104E5000C5F10103002305934FF0000858BF0593E7
:104E6000BAF1000F3EDB0023D044CDF838A0079301
:104E7000069B092B00F29080052BC4BF043B0693D0
:104E8000069BA3F10203CCBF00250125032B00F2F2
:104E90008F80DFE803F07D7F3171DDE914531D441D
:104EA00005F23240202813DDC0F14000009B08FAD3
:104EB00000F805F2124023FA00F048EA0000FBF780
:104EC00029FB01238246A1F1F87B013D139372E790
:104ED000009BC0F1200003FA00F0F0E70123B1E7E6
:104EE0000F90B0E7059BA3EB0A030593CAF10003FB
:104EF000079300230E93BBE701230A930B9B002B20
:104F000059DD02939946666A00227260042202F11A
:104F100014009842716853D9204600F0E8FF636A94
:104F20003060B9F10E0FD3F800B000F2E680002D2A
:104F300000F0E3809DED007BBAF1000F8DED107B5A
:104F400074DD2A4A0AF00F0302EBC30393ED007BE2
:104F50004FEA2A16F0068DED087B65D5244BDDE976
:104F60001001D3E90823FBF779FCCDE9000106F035
:104F70000F0603251E4F4CE001230A930B9B53445D
:104F800003F1010902934B46012BB8BF0123BAE795
:104F90000023B2E70023F0E70125002306930A95DA
:104FA0004FF0FF3302939946002212230B92AAE797
:104FB00001230A93F4E70123029399461A46F5E781
:104FC000013171605200A2E761436F63A787D23F4E
:104FD000B3C8608B288AC63FFB799F501344D33FE8
:104FE0000000F07F3D6C00080000F83FF86C0008FE
:104FF000D06C0008C16C0008F10708D5DDE9080194
:10500000D7E90023FBF700FBCDE908010135761055
:105010000837002EF0D1DDE90823DDE90001FBF7B8
:105020001DFCCDE900011AE00225A3E700F0A080F5
:10503000CAF100069F4BA04F06F00F0203EBC2031C
:10504000D3E90023DDE91001FBF7DEFACDE9000129
:10505000361100230225002E7FD1002BE1D10F9BBA
:10506000002B00F08780DDE900670022934B30467B
:105070003946FBF73BFD00287CD0B9F1000F79D011
:10508000029B002B35DD0AF1FF33089339460022DD
:105090008B4B3046FBF7B8FACDE90001029F013592
:1050A0002846FBF747FADDE90023FBF7ADFA0022BB
:1050B000844BFBF7F3F80546A1F15076002F5DD144
:1050C0000022814BDDE90001FBF7E6F82A46334672
:1050D000CDE90001FBF728FD002840F088822A4630
:1050E00006F10043DDE90001FBF700FD002840F078
:1050F0007C82DDE91023CDE90023159B002BC0F253
:105100005081BAF10E0F00F34C816A4B03EBCA03D6
:1051100093ED007B0B9B002B8DED027B80F2D88002
:10512000B9F1000F00F3D48040F05E820022664B9C
:1051300051EC170BFBF768FADDE90023FBF7EAFCFB
:105140004F464E46002840F0348231230BF10105D2
:105150008BF800300AF1010A2FE2F20705D5D7E9F2
:105160000023FBF751FA013501237610083772E767
:10517000022574E7CDF820A04F4691E74D4B03EB95
:10518000C70353E902010A9B002B47D002460B4696
:1051900000204E49FBF762FB2A463346FBF77CF8BA
:1051A000CDE90C015D46DDE90001FBF7DDFC0646BB
:1051B000FBF7C0F902460B46DDE90001FBF76CF88E
:1051C000303605F8016BDDE90C23CDE90001FBF772
:1051D0008DFC002863D1DDE9002300203749FBF76F
:1051E0005BF8DDE90C23FBF781FC002840F0B78079
:1051F000A5EB0B039F427FF77CAF0022304BDDE92C
:105200000C01FBF701FA0022CDE90C012C4BDDE982
:105210000001FBF7F9F9CDE90001C4E72A4633465E
:10522000FBF7F2F9CDE90C010BEB07055E46DDE972
:105230000001FBF799FC0746FBF77CF93037024683
:105240000B46DDE90001FBF727F806F8017BAE42CB
:10525000CDE900014FF0000226D11C4BDDE90C0125
:10526000FBF71CF802460B46DDE90001FBF75CFC8E
:10527000002874D1DDE90C2300201449FBF70CF859
:1052800002460B46DDE90001FBF730FC00283FF445
:1052900030AF15F8013C302B05F1FF3202D0DDF8BC
:1052A00020A04AE01546F4E7054BFBF7ADF9CDE940
:1052B0000001BCE7F86C0008D06C00080000F03F6B
:1052C0000000244000001C40000014400000E03FAB
:1052D000DDE900675D46DDE9022330463946FBF72C
:1052E000BDFAFBF741FC8046FBF724F9DDE9022318
:1052F000FBF78AF902460B463046394608F130067C
:10530000FAF7CAFF05F8016BA5EB0B06B14502469B
:105310000B4639D1FAF7C2FFDDE9022306460F46F4
:10532000FBF702FCC8B9DDE9022330463946FBF73A
:10533000D3FB10B118F0010F0FD10499204600F0F3
:105340000AFE0023129A2B700AF101031360219BBD
:10535000002B00F041821D603EE2CDF820A015F840
:10536000012C392A05F1FF3308D19B450AD1089B4E
:105370000133089330238BF800305B461A780132F2
:105380001A708CE71D46EAE700229B4BFBF73CF9BD
:105390000022002306460F46FBF79EFB00289AD00A
:1053A000CBE70A9A002A00F08B80069A012A6EDC6D
:1053B000139A002A67D003F23343079F059D059A8D
:1053C00001211A4420460592984400F0A2FE0646A8
:1053D000002D0CDDB8F1000F09DD4545059A2B467F
:1053E000A8BF4346D21A0592ED1AA8EB0308079B03
:1053F000EBB10A9B002B67D08FB131463A4620466D
:1054000000F026FF049A01460646204600F08AFE78
:1054100004990890204600F09EFD089B0493079B8A
:10542000DA1B04D00499204600F012FF04900121F9
:10543000204600F06EFE0E9B0746002B00F0D08148
:105440001A460146204600F003FF069B012B074643
:1054500040DC009B002B39D1019BC3F31303002BCD
:1054600036D1019B23F000431B0D1B052BB1059B7F
:105470000133059308F10108012307930E9B002BCC
:105480002AD1012030E0149BC3F1360395E7079B36
:1054900009F1FF37BB42BFBF079B0797FA1A0E9B64
:1054A000BBBF9B180E93DF1B0027B9F1000FB5BFE0
:1054B000059B059DA3EB09054B46B8BF00237EE77E
:1054C000079F059D0A9E83E7079AABE70023D4E771
:1054D000009BD2E7002307933B6907EB830318691E
:1054E00000F0C9FDC0F12000404410F01F0047D07B
:1054F000C0F12003042B3BDD059BC0F11C000344DD
:10550000059305448044059B002B05DD1A4604994C
:10551000204600F0EBFE0490B8F1000F05DD39469F
:105520004246204600F0E2FE07460F9B53B3394641
:10553000049800F02FFF002824DA00230A2204999F
:10554000204600F01FFD0A9B04900AF1FF3A002B51
:1055500000F04D81002331460A22204600F012FD62
:10556000029B002B06464FDC069B022B4CDD11E014
:10557000C9D0059A1C331A4405921D449844C2E7C9
:105580000346F6E7B9F1000F38DC069B022B35DD48
:10559000CDF80890029B63B939460522204600F0F9
:1055A000F1FC01460746049800F0F4FE00283FF79E
:1055B000CCAD0B9B5D466FEA030A4FF000093946FC
:1055C000204600F0C8FC002E3FF4B7AEB9F1000F42
:1055D00005D0B14503D04946204600F0BCFC314619
:1055E000204600F0B8FCA8E600273E46E1E7DDF8DB
:1055F00020A03E46A9E500BF000024400A9BCDF84C
:105600000890002B00F0FA80002D05DD31462A4677
:10561000204600F06BFE0646079B002B4CD07168BD
:10562000204600F064FC326902320546920006F121
:105630000C010C3000F050FC01222946204600F0FD
:1056400055FE009BCDF814B003F00103B14607935B
:10565000064639460498FFF7A5FA4946054600F183
:105660003008049800F096FE3246009039462046F5
:1056700000F0AAFEC368024603BB014608900498E6
:1056800000F088FE089A034611462046089300F071
:1056900062FC089BA3B9069A92B9079A82B9B8F13D
:1056A000390F29D0009B002B01DD05F13108059B46
:1056B0005D1C83F8008082E73046C2E70123E3E700
:1056C000009A002A04DB25D1069A1ABB079A0ABB66
:1056D000002BECDD01220499204600F007FE39463C
:1056E000049000F057FE002803DCE0D118F0010F11
:1056F000DDD0B8F1390FD8D1059B059A5D1C39234F
:10570000137015F8013C392B05F1FF324FD00133EE
:10571000137054E7059A002B02F1010506DDB8F17C
:10572000390FE9D008F10108059BC2E7029A05F894
:10573000018CA5EB0B03934221D000230A2204998C
:10574000204600F01FFCB14504904FF000034FF0DD
:105750000A024946204605D100F014FC814606465F
:10576000059576E700F00EFC3146814600230A22BB
:10577000204600F007FC0646F2E74FF00009012240
:105780000499204600F0B2FD3946049000F002FE74
:105790000028B6DC02D118F0010FB2D115F8013C97
:1057A000302B05F1FF327FF40AAF1546F6E793453B
:1057B00005D131230AF1010A8BF80030FFE61546C6
:1057C0009FE7DFF864B007E0219BDFF860B01BB112
:1057D0000BF10803219A1360584617B0BDE8F08F0B
:1057E000069B012B7FF735AE0E9B079349E6029B84
:1057F000002B03DC069B022B3FF7CCAE5D463946FF
:105800000498FFF7CFF900F1300805F8018B029AF0
:10581000A5EB0B039A42B0DD00230A22049920462F
:1058200000F0B0FB0490EAE73C6C0008B86C00089C
:10583000F0B506694B119E4200F1140430DD11F001
:105840001F0104EB860604EB830208D12146B24215
:105850000B4611D252F8043B41F8043BF7E754F8E9
:105860002350C1F1200CCD4004322346B2421746EA
:105870000CD31D6005B104331A1BA3424FEAA202E8
:1058800008BF0023026108BF4361F0BD3F6807FA0B
:105890000CF73D4343F8045B52F8045BCD40E5E769
:1058A0002346E9E7A0F13003092B02D82038C0B223
:1058B0007047A0F16103052B01D84738F7E7A0F145
:1058C0004103052B01D82738F1E7002070472DE967
:1058D000F04F8BB08A46029016980693904600F0DF
:1058E000D0FA036803931846FAF77AFC039B0190F9
:1058F00003444FF0000B13F8013C0793DAF8003033
:1059000002331F4613F8010B30286CD0FFF7CAFF93
:10591000044600286AD1019A0399384601F0FEF83E
:10592000002866D1019BF85CFE18FFF7BBFF00283A
:1059300062D03346187830281F4603F10103F9D0AE
:10594000FFF7B0FFB0FA80F56D0934464FF0010B58
:105950003A46164601323078FFF7A4FF0028F8D106
:10596000019A0399304601F0D9F850B954B9019B16
:10597000F4182246164601323078FFF793FF0028CC
:10598000F8D10CB1A41BA4003378502B01D0702B9C
:1059900040D173782B2B31D02D2B33D0711C4FF08D
:1059A00000090878FFF77EFF431EDBB2182B31D8C1
:1059B000A0F1100211F8010FFFF774FF431EDBB2D4
:1059C000182B22D9B9F1000F00D052421444CAF862
:1059D00000100DB3BBF1000F0CBF0627002738469F
:1059E0000BB0BDE8F08F0BF1010B8AE700252C46C8
:1059F000AEE73E460125C7E70446FBE74FF0000946
:105A0000B11CCEE74FF00109FAE70A2303FB0202BB
:105A1000103ACFE73146DAE7F31B013B2946072B63
:105A200049DC029800F063FA019B00F114094FF081
:105A3000000BC3F101030546CDF81090DA46089338
:105A4000B7423BD3049840F804ABA0EB09008010A8
:105A500028614701504600F00EFBD8F800603F1A5D
:105A6000B74264DDBF1B3946284600F01DFE824662
:105A700078B17B1E591103F01F024FF0010A59F84B
:105A800021100AFA02F20A4203D0534546DC4FF0D5
:105A9000020A39462846FFF7CBFE3C44D8F80830C6
:105AA000A34252DA2946029800F055FA149A0023CC
:105AB0001360A32793E701315B10B0E7731E0593D2
:105AC000079A16F8013C934218D0BBF1200F07D17A
:105AD000049BC3F800A004334FF0000A0493D3469C
